:020000040800F2
:1000000000500020652C0008090300080B030008BD
:100010000D0300080F030008110300080000000092
:10002000000000000000000000000000112A00088D
:100030001303000800000000B12A0008C7250008CB
:10004000AD2C0008AD2C0008AD2C0008AD2C00082C
:10005000AD2C0008AD2C0008AD2C0008AD2C00081C
:10006000AD2C0008AD2C0008AD2C0008AD2C00080C
:10007000AD2C0008AD2C0008AD2C0008AD2C0008FC
:10008000AD2C0008AD2C0008AD2C0008AD2C0008EC
:10009000AD2C0008AD2C0008AD2C0008AD2C0008DC
:1000A000AD2C0008AD2C0008AD2C0008AD2C0008CC
:1000B000AD2C0008AD2C000815030008AD2C00087D
:1000C000AD2C0008AD2C0008AD2C0008AD2C0008AC
:1000D000AD2C0008AD2C0008AD2C0008AD2C00089C
:1000E000AD2C0008AD2C0008AD2C0008000000006D
:1000F0000000000000000000000000000000000000
:0C01000000000000000000005FF808F1A3
:100110000348044B834202D0034B03B11847704796
:100120001000002010000020000000000548064BD1
:100130001B1AD90F01EBA301491002D0034B03B1E5
:100140001847704710000020100000200000000039
:1001500010B5064C237843B9FFF7DAFF044B13B10F
:100160000448AFF300800123237010BD100000206D
:1001700000000000242D000808B5054B1BB10549FF
:100180000548AFF30080BDE80840FFF7CFBF00BFD0
:100190000000000014000020242D000808B50268AB
:1001A000034B9A4200D008BD00F0A0FAFBE700BF65
:1001B0000008004072B6FEE710B590B006AC2822E9
:1001C0000021204602F073FD002301930293039364
:1001D00004930593012206924FF4803307930A9209
:1001E00002220D920E934FF4E0130F93204600F07D
:1001F000A5FA78B90F2301930221029100230393FA
:100200004FF480620492059301A800F0C9FC18B96C
:1002100010B010BDFFF7CEFFFFF7CCFF08B500F020
:1002200053FAFFF7C9FF00F007F802F0D9F900F020
:100230005BF802F0E7F9FEE770B588B004AD002482
:100240000494059406940794184B9A6942F010029E
:100250009A619A6902F010020192019A9A6942F039
:1002600020029A619A6902F020020292029A9A6927
:1002700042F004029A619B6903F004030393039B19
:100280000B4E22464FF40051304600F07DFE4FF4F5
:1002900000530493012305930694022307932946F0
:1002A000304600F067FD08B070BD00BF001002408E
:1002B0000010014008B50B4C01224FF400512046BC
:1002C00000F062FE4FF4FA7002F012FA00224FF4CE
:1002D0000051204600F058FE4FF4FA7002F008FA80
:1002E000E9E700BF0010014008B5044A00210448B6
:1002F00002F0A4F9034B186008BD00BF602D000890
:10030000B50200082C000020FEE7FEE7FEE7FEE74E
:10031000FEE7704708B5024800F0B6F808BD00BF18
:100320003000002000B583B0114B9A6942F0010201
:100330009A619A6902F001020092009ADA6942F029
:100340008052DA61DB6903F080530193019B002244
:100350000F216FF0010000F063FE064A536823F09E
:10036000E06343F00073536003B05DF804FB00BF2B
:10037000001002400000014030B589B00446214B16
:10038000DA6942F00402DA61DB6903F004030193E5
:10039000019B02A903A800F0CFFC069BCBB900F09B
:1003A000BBFC0346184AA2FB03239B0C013B1748E6
:1003B000174A026040F2E732C260436000230361E3
:1003C0008360836100F052F9054630B1284609B0D8
:1003D00030BD00F0A1FC4300E4E70C4800F01EF83B
:1003E00005460028F2D11E2000F02AFE0F2C01D96C
:1003F0000125EBE7002221461E2000F011FE054BEF
:100400001C60E3E70010024083DE1B433000002045
:1004100000080040040000207047000090F83D30C4
:10042000012B27D1022380F83D300268D36843F0C6
:100430000103D3600368114A934210D0B3F1804F97
:100440000DD0A2F59432934209D002F58062934216
:1004500005D01A6842F001021A60002070479A68BD
:1004600002F00702062A07D01A6842F001021A6059
:10047000002070470120704700207047002C014089
:10048000704770477047704770B504460368DE6870
:100490001D6915F0020F10D016F0020F0DD06FF08D
:1004A00002021A610123037703689B6913F0030FAB
:1004B0005ED0FFF7E6FF0023237715F0040F12D07C
:1004C00016F0040F0FD023686FF004021A610223A4
:1004D000237723689B6913F4407F4FD02046FFF7B2
:1004E000D0FF0023237715F0080F12D016F0080F65
:1004F0000FD023686FF008021A6104232377236862
:10050000DB6913F0030F40D02046FFF7BAFF00234A
:10051000237715F0100F12D016F0100F0FD02368AC
:100520006FF010021A61082323772368DB6913F444
:10053000407F31D02046FFF7A4FF0023237715F03A
:10054000010F02D016F0010F2DD115F0800F02D04F
:1005500016F0800F2FD115F0400F02D016F0400F8B
:1005600031D115F0200F02D016F0200F33D170BD1D
:10057000FFF786FF2046FFF785FF9CE72046FFF741
:100580007FFF2046FFF77EFFABE72046FFF778FFAF
:100590002046FFF777FFBAE72046FFF771FF2046B6
:1005A000FFF770FFC9E723686FF001021A61204668
:1005B000FFF7F4FDC9E723686FF080021A61204657
:1005C00000F081F8C7E723686FF040021A61204607
:1005D000FFF759FFC5E723686FF020021A61204634
:1005E00000F070F8C3E7000003681F4A90420AD089
:1005F000B0F1804F07D0A2F59432904203D002F5BB
:100600008062904203D123F070034A681343164A74
:1006100090420AD0B0F1804F07D0A2F594329042B8
:1006200003D002F58062904203D123F44073CA687C
:10063000134323F080034A69134303608B68C3624A
:100640000B688362084B98420AD001234361036917
:1006500013F0010F03D0036923F001030361704716
:100660000B690363F1E700BF002C014040B310B5F4
:10067000044690F83D30F3B1022384F83D30214622
:1006800051F8040BFFF7B0FF012384F8463084F8DB
:100690003E3084F83F3084F8403084F8413084F8AC
:1006A000423084F8433084F8443084F8453084F88C
:1006B0003D30002010BD80F83C30FFF7ADFEDBE799
:1006C000012070477047704708B5074A136843F028
:1006D00010031360032000F091FC0F20FFF74CFE85
:1006E000FFF720FE002008BD00200240034A1168E9
:1006F000034B1B780B441360704700BF7800002049
:1007000000000020014B1868704700BF78000020EF
:1007100082B0084B1B68084AA2FB03235B0A00FB5C
:1007200003F3019300BF019B5A1E0192002BF9D1E4
:1007300002B0704708000020D34D6210002800F07E
:10074000F18170B582B00446036813F0010F2CD01C
:10075000994B5B6803F00C03042B1DD0964B5B6830
:1007600003F00C03082B12D06368B3F5803F41D02F
:10077000002B55D103F1804303F504331A6822F4AA
:1007800080321A601A6822F480221A6037E08A4B9D
:100790005B6813F4803FE7D0874B1B6813F4003F7E
:1007A00003D06368002B00F0BF81236813F0020FB1
:1007B00075D0814B5B6813F00C0F5FD07E4B5B688C
:1007C00003F00C03082B54D02369002B00F08A801F
:1007D0007A4B01221A60FFF795FF0546764B1B689E
:1007E00013F0020F75D1FFF78DFF401B0228F5D9DA
:1007F00003209EE1704A136843F4803313606368FA
:1008000043B3FFF77FFF05466B4B1B6813F4003FB4
:10081000CBD1FFF777FF401B6428F5D9032088E18F
:10082000B3F5A02F09D0644B1A6822F480321A6005
:100830001A6822F480221A60E1E703F18043A3F5ED
:100840003C331A6842F480221A601A6842F48032FB
:100850001A60D4E7FFF756FF0546574B1B6813F4A1
:10086000003FA2D0FFF74EFF401B6428F5D90320BC
:100870005FE1514B5B6813F4803FA5D14E4B1B6881
:1008800013F0020F03D02369012B40F04F814A4A35
:10089000136823F0F803616943EAC1031360236816
:1008A00013F0080F33D0A369002B5CD0434B012217
:1008B000C3F88024FFF726FF05463F4B5B6A13F021
:1008C000020F21D1FFF71EFF401B0228F5D903209C
:1008D0002FE1394A136823F0F803616943EAC10341
:1008E0001360DCE7354B00221A60FFF70BFF05466B
:1008F000314B1B6813F0020FD1D0FFF703FF401BF1
:100900000228F5D9032014E10120FFF701FF236835
:1009100013F0040F00F09680274BDB6913F0805F23
:1009200034D1254BDA6942F08052DA61DB6903F099
:1009300080530193019B0125214B1B6813F4807F99
:1009400026D0E368012B3DD0002B53D103F1804327
:1009500003F504331A6A22F001021A621A6A22F0BD
:1009600004021A6233E0154B0022C3F88024FFF71B
:10097000C9FE0546104B5B6A13F0020FC7D0FFF7A4
:10098000C1FE401B0228F5D90320D2E00025D3E7A1
:100990000B4A136843F480731360FFF7B3FE0646F7
:1009A000074B1B6813F4807FCBD1FFF7ABFE801B96
:1009B0006428F5D90320BCE0001002400000424248
:1009C000007000405F4A136A43F001031362E3685A
:1009D00033B3FFF797FE06465A4B1B6A13F0020F1C
:1009E0002FD1FFF78FFE801B41F288339842F3D955
:1009F00003209EE0052B09D0524B1A6A22F0010217
:100A00001A621A6A22F004021A62E0E74D4B1A6A6F
:100A100042F004021A621A6A42F001021A62D6E730
:100A2000FFF770FE0646474B1B6A13F0020F08D013
:100A3000FFF768FE801B41F288339842F3D9032008
:100A400077E0E5B9E369002B72D03E4A526802F0C4
:100A50000C02082A56D0022B17D03B4B00221A66F4
:100A6000FFF750FE0446374B1B6813F0007F47D05A
:100A7000FFF748FE001B0228F5D9032059E0314A50
:100A8000D36923F08053D361DCE72F4B00221A6631
:100A9000FFF738FE05462B4B1B6813F0007F06D08E
:100AA000FFF730FE401B0228F5D9032041E0236AFE
:100AB000B3F5803F1AD023494B6823F47413226A9C
:100AC000606A024313434B601F4B01221A66FFF713
:100AD00019FE04461B4B1B6813F0007F0ED1FFF775
:100AE00011FE001B0228F5D9032022E0154A5368A5
:100AF00023F40033A1680B435360DCE7002018E0C7
:100B0000002016E0012B16D00E4B5B6803F48031F9
:100B1000226A914211D103F47013626A93420ED19A
:100B2000002006E001207047012002E0012000E0E3
:100B3000002002B070BD0120FBE70120F9E7012091
:100B4000F7E700BF00100240000042420F4B5B6815
:100B500003F00C02082A01D00D487047C3F383420A
:100B60000C49885C13F4803F0BD0084B5B68C3F3DF
:100B70004043094AD35C064A02FB00F0B0FBF3F0A5
:100B80007047064B03FB00F0704700BF00100240A7
:100B900000127A00882D0008842D000800093D000D
:100BA000002800F0A08070B50D460446524B1B682B
:100BB00003F007038B420BD24F4A136823F007035D
:100BC0000B431360136803F007038B4240F08D80E2
:100BD000236813F0020F17D013F0040F04D0474A14
:100BE000536843F4E0635360236813F0080F04D0A4
:100BF000424A536843F460535360404A536823F0B9
:100C0000F003A1680B435360236813F0010F31D048
:100C10006368012B20D0022B25D0384A126812F0CD
:100C2000020F64D035494A6822F0030213434B6037
:100C3000FFF768FD0646314B5B6803F00C03626802
:100C4000B3EB820F16D0FFF75DFD801B41F28833B6
:100C50009842F0D9032045E0284A126812F4003F78
:100C6000E0D101203EE0254A126812F0007FD9D180
:100C7000012037E0204B1B6803F00703AB420AD981
:100C80001D4A136823F007032B431360136803F016
:100C90000703AB422DD1236813F0040F06D0174A87
:100CA000536823F4E063E1680B435360236813F057
:100CB000080F07D0114A536823F46053216943EAAF
:100CC000C1035360FFF742FF0C4B5B68C3F3031390
:100CD0000B4AD35CD8400B4B18600B4B1868FFF7DE
:100CE0004BFB002070BD012070470120FAE7012076
:100CF000F8E70120F6E700BF0020024000100240A4
:100D0000A02D00080800002004000020014B1868F6
:100D1000704700BF0800002008B5FFF7F7FF044B3D
:100D20005B68C3F30223034AD35CD84008BD00BF0D
:100D300000100240982D00080F2303600B4B5A68E7
:100D400002F0030242605A6802F0F00282605A68C0
:100D500002F4E062C2605B68DB0803F4E0630361F5
:100D6000034B1B6803F007030B6070470010024041
:100D70000020024070B582B00024A4469EE07C4D65
:100D8000AB4214D00CD8A5F58015AB420FD005F5B9
:100D90007025AB420BD0A5F58015AB421FD106E004
:100DA000744DAB4203D005F58035AB4217D18B684B
:100DB000A3B1012B0DD04261082410E0CC680EE0F5
:100DC000CC6804340BE0CC68083408E0CC680C3400
:100DD00005E00261082402E0002400E00424BEF1E2
:100DE000FF0F37D806464FEA8C0233680F2595402F
:100DF00023EA050304FA02F2134333604B6813F04D
:100E0000805F59D05C4B9A6942F001029A619B69FC
:100E100003F001030193019B4FEA9C02951C574B81
:100E200053F825600CF00305AD000F23AB4026EA14
:100E30000306534B984214D003F58063984279D04F
:100E400003F58063984277D003F58063984206D01B
:100E5000042307E0061DACF108029200C5E7032356
:100E600000E00023AB4033430232444D45F82230CA
:100E70004B6813F4801F61D0424A936843EA0E0323
:100E800093604B6813F4001F5ED03E4AD36843EA78
:100E90000E03D3604B6813F4003F5BD0394A5368AC
:100EA00043EA0E0353604B6813F4803F58D0354A31
:100EB000136843EA0E0313600CF1010C0B6833FA5C
:100EC0000CF253D0012202FA0CF203EA020E32EACB
:100ED0000303F1D14B68122B3FF651AF122B3FF6B3
:100EE0007EAF01A555F823F0AF0D0008BD0D000839
:100EF000C70D0008D90D0008DF0D0008DF0D000840
:100F0000DF0D0008DF0D0008DF0D0008DF0D000811
:100F1000DF0D0008DF0D0008DF0D0008DF0D000801
:100F2000DF0D0008DF0D0008DF0D0008C10D00080F
:100F3000CD0D0008012395E7022393E7114A93683A
:100F400023EA0E0393609CE70E4AD36823EA0E035C
:100F5000D3609FE70B4A536823EA0E035360A2E76E
:100F6000084A136823EA0E031360A5E702B070BDB8
:100F7000000022100000311000100240000001406B
:100F800000080140000401400AB1016170470904F2
:100F900001617047002808DB0901C9B200F1604017
:100FA00000F5614080F80013704700F00F00090160
:100FB000C9B2014B1954704714ED00E000B500F0C0
:100FC0000700C0F1070CBCF1040F28BF4FF0040C60
:100FD000031D062B0FD9C31E4FF0FF3E0EFA0CF077
:100FE00021EA000199400EFA03FE22EA0E0241EACC
:100FF00002005DF804FB0023EEE70000074AD36817
:1010000023F4E0631B041B0C000200F4E0600343C4
:1010100043F0BF6343F40033D360704700ED00E05A
:1010200010B50446054BD868C0F30220FFF7C6FF91
:1010300001462046FFF7AEFF10BD00BF00ED00E007
:10104000002807DB00F01F02400901239340024AF9
:1010500042F82030704700BF00E100E0704700F127
:10106000080343604FF0FF328260C36003610023D6
:101070000360704700230361704743684B609A68C0
:101080008A605160996008610368013303607047AA
:1010900030B40D68B5F1FF3F11D000F108031C46D4
:1010A0005B681A68AA42FAD963684B6099608C60E1
:1010B0006160086103680133036030BC70470469F4
:1010C000F2E70369416882688A60416851605A6842
:1010D000824206D0002202611A68013A1A6018683A
:1010E000704782685A60F5E710B5044601F0A2FC2B
:1010F000A26BE36B9A4204D0002401F0BDFC2046B1
:1011000010BD0124F9E710B5044601F093FCA36B70
:1011100023B9012401F0B0FC204610BD0024F9E7FA
:1011200070B504461546866B026C5AB903681BB14C
:1011300000200136A66370BD806800F0D3FF002355
:10114000A360F6E76DB9406801F0DEFD6368226CCC
:1011500013446360A268934219D3236863602846EE
:10116000E7E7C06801F0D0FDE368226C51429B1AAA
:10117000E3602268934202D2A3680B44E360022D2D
:1011800001D00020D5E726B1013E0020D1E7284656
:10119000CFE70020CDE708B50346026C62B10846F0
:1011A000D9681144D960D3F808C0614501D31968E2
:1011B000D960D96801F0A8FD08BD38B5054601F031
:1011C00039FC95F8454064B201E0013C64B2002C62
:1011D0000ADD6B6A43B105F1240000F0D7FE002858
:1011E000F3D000F069FFF0E7FF2385F8453001F008
:1011F00043FC01F01FFC95F8444064B201E0013C5F
:1012000064B2002C0ADD2B6943B105F1100000F037
:10121000BDFE0028F3D000F04FFFF0E7FF2385F874
:10122000443001F029FC38BD38B5E0B10D46044624
:1012300001F000FC2368E26B216C01FB0230A0602E
:101240000020A0636360013A02FB0133E360FF23E7
:1012500084F8443084F84530FDB9236963B901F05E
:101260000BFC012038BD4FF0500383F31188BFF30E
:101270006F8FBFF34F8FFEE704F1100000F086FE82
:101280000028ECD04FF0E0234FF08052C3F8042D3B
:10129000BFF34F8FBFF36F8FE1E704F11000FFF74B
:1012A000DEFE04F12400FFF7DAFED8E738B51D466C
:1012B000049C0B4649B92460E06323640121204665
:1012C000FFF7B2FF84F84C5038BD2260F4E740B914
:1012D0004FF0500383F31188BFF36F8FBFF34F8F2D
:1012E000FEE710B584B01C46844653B192B189B96B
:1012F0004FF0500383F31188BFF36F8FBFF34F8F0D
:10130000FEE74FF0500383F31188BFF36F8FBFF3F5
:101310004F8FFEE76AB150230393039B502B13D0EA
:101320004FF0500383F31188BFF36F8FBFF34F8FDC
:10133000FEE70029EFD04FF0500383F31188BFF38D
:101340006F8FBFF34F8FFEE7039B012384F8463076
:1013500000949DF818306046FFF7A8FF204604B0BF
:1013600010BDF0B585B0019288B10F461D46044608
:10137000B1B1022D20D1E36B012B1DD04FF05003F2
:1013800083F31188BFF36F8FBFF34F8FFEE74FF0EA
:10139000500383F31188BFF36F8FBFF34F8FFEE7C6
:1013A000036C002BE5D04FF0500383F31188BFF39B
:1013B0006F8FBFF34F8FFEE700F084FE064658B9EB
:1013C000019B002B48D04FF0500383F31188BFF3EB
:1013D0006F8FBFF34F8FFEE700263DE02A46394668
:1013E0002046FFF79DFE636A7BB948B14FF0E023CA
:1013F0004FF08052C3F8042DBFF34F8FBFF36F8FB0
:1014000001F03AFB012005B0F0BD04F1240000F02A
:10141000BDFD0028F4D04FF0E0234FF08052C3F818
:10142000042DBFF34F8FBFF36F8FE9E701F024FB6B
:101430000020E8E702A800F0EFFD012619E00023F4
:1014400084F8443021E0002384F8453023E020462E
:10145000FFF7B3FE00F078FC01F0ECFAA26BE36B4F
:101460009A42BBD3022DB9D0019B002BDED0002EB7
:10147000E0D001F001FB00F0CDFB01F0DBFA94F8C5
:10148000442052B2B2F1FF3FD9D094F8452052B275
:10149000B2F1FF3FD7D001F0EFFA01A902A800F0A6
:1014A000C7FDD8B92046FFF71FFE0028CFD001990D
:1014B00004F1100000F036FD2046FFF77EFE00F03C
:1014C00043FC0028C8D14FF0E0234FF08052C3F80E
:1014D000042DBFF34F8FBFF36F8FBDE72046FFF79B
:1014E0006CFE00F031FC00208DE72DE9F84390B14F
:1014F0000F4616461C460546B1B1022C20D1EB6BB7
:10150000012B1DD04FF0500383F31188BFF36F8F71
:10151000BFF34F8FFEE74FF0500383F31188BFF303
:101520006F8FBFF34F8FFEE7036C002BE5D04FF0BA
:10153000500383F31188BFF36F8FBFF34F8FFEE724
:1015400001F062FBEFF311884FF0500383F3118831
:10155000BFF36F8FBFF34F8FAA6BEB6B9A4206D32B
:10156000022C04D0002088F31188BDE8F88395F898
:1015700045904FFA89F9AB6B224639462846FFF76A
:10158000CFFDB9F1FF3F06D009F101035BB285F849
:1015900045300120E7E76B6A0BB90120E3E705F16D
:1015A000240000F0F3FC18B126B101203060DAE726
:1015B0000120D8E70120D6E7F0B585B0019290B1BF
:1015C0000F460446C1B100F07DFD064600BB019BFD
:1015D000002B5ED04FF0500383F31188BFF36F8F61
:1015E000BFF34F8FFEE74FF0500383F31188BFF333
:1015F0006F8FBFF34F8FFEE7036C002BE3D04FF0EC
:10160000500383F31188BFF36F8FBFF34F8FFEE753
:1016100000263EE039462046FFF7BDFD013DA563AB
:10162000236923B901F028FA012005B0F0BD04F1C7
:10163000100000F0ABFC0028F4D04FF0E0234FF096
:101640008052C3F8042DBFF34F8FBFF36F8FE9E7CC
:1016500001F012FA0020E8E702A800F0DDFC012604
:1016600021E0002384F8443029E0002384F8453049
:101670002BE02046FFF7A1FD00F066FB09E02046C5
:10168000FFF79BFD00F060FB2046FFF73CFD0028C4
:101690003FD101F0CFF9A56B002DBBD1019B002BF1
:1016A000D6D0002ED8D001F0E7F900F0B3FA01F05F
:1016B000C1F994F844305BB2B3F1FF3FD1D094F854
:1016C00045305BB2B3F1FF3FCFD001F0D5F901A9AE
:1016D00002A800F0ADFC0028D1D12046FFF713FD91
:1016E0000028C6D0019904F1240000F01BFC20461C
:1016F000FFF763FD00F028FB0028CAD14FF0E0237C
:101700004FF08052C3F8042DBFF34F8FBFF36F8F9C
:10171000BFE7002089E700000023072B0CD8074A09
:1017200052F833200AB10133F7E7044A42F8331084
:1017300002EBC30250607047704700BF7C0000207E
:1017400070B504460D46164601F074F994F844301D
:101750005BB2B3F1FF3F0DD094F845305BB2B3F10B
:10176000FF3F0BD001F088F9A36B5BB12046FFF778
:1017700024FD70BD002384F84430EDE7002384F895
:101780004530EFE73246294604F1240000F0E2FB41
:10179000ECE70000084B1B681B6823B9074B4FF0B0
:1017A000FF321A607047044B1B68DB68DB685A68BD
:1017B000024B1A60704700BF2C010020C4000020BB
:1017C0002DE9F04780460D4617469946089EDDF8FC
:1017D00024A00A9C9200A521206B01F068FA236BDB
:1017E00007F18042013A03EB820727F00707A5B310
:1017F0004FF0000CBCF10F0F09D815F80C3004EBBA
:101800000C0282F8343013B10CF1010CF2E7002322
:1018100084F84330372E00D93726E662E664002587
:101820002565201DFFF726FC04F11800FFF722FCB8
:101830002461C6F13806A6616462656584F8585073
:101840004A464146384601F0CBF82060BAF1000F15
:1018500001D0CAF80040BDE8F087002384F8343096
:10186000D8E7000038B5002407E004EB84029300B9
:101870000E481844FFF7F3FB0134372CF5D90C4D13
:101880002846FFF7ECFB0B4C2046FFF7E8FB0A4825
:10189000FFF7E5FB0948FFF7E2FB0948FFF7DFFB2D
:1018A000084B1D60084B1C6038BD00BF580100206C
:1018B000440100203001002014010020000100201C
:1018C000E80000202C0100202801002010B504466B
:1018D00001F0B0F8224A136801331360214B1B68F2
:1018E0005BB1214B1B686BB91E4B1B68DA6AE36A5C
:1018F0009A4207D81B4B1C6004E01A4B1C6013680B
:10190000012B29D0194A1368013313606364E06A1C
:10191000174B1B68984201D9154B186000EB8000EB
:10192000211D144B03EB8000FFF7A7FB01F0A4F887
:101930000D4B1B687BB10B4B1B68DA6AE36A9A425A
:1019400009D24FF0E0234FF08052C3F8042DBFF3CB
:101950004F8FBFF36F8F10BDFFF784FFD2E700BF3B
:10196000E4000020B8050020D8000020C8000020B6
:10197000DC0000205801002010B5044690F85930D2
:1019800063B1012B11D0022B0ED04FF0500383F323
:101990001188BFF36F8FBFF34F8FFEE7006B00F02E
:1019A000B1FF204600F0AEFF10BD00F0ABFFFBE73B
:1019B0000F4B1B68D3B110B501F03CF80D4BDB6841
:1019C000DC68201DFFF77DFB0B4A1368013B1360A9
:1019D000074A1368013B136001F04EF82046FFF7F9
:1019E000CBFF034B1B68002BE6D110BD704700BF37
:1019F000FC00002000010020E400002008B5FFF7F3
:101A0000D7FF074B1B68012BF9D94FF0E0234FF0AC
:101A10008052C3F8042DBFF34F8FBFF36F8FEEE7F3
:101A20005801002070B504460D46174B1E68174B31
:101A300018680430FFF745FBB4F1FF3F0DD0344484
:101A4000124B1B685C60A64210D9114B18680F4BF3
:101A500019680431FFF71CFB70BD002DEFD00B4B54
:101A6000196804310B48FFF708FBF5E70A4B1868C3
:101A7000064B19680431FFF70BFB084B1B68A342A8
:101A8000EAD9064B1C60E7E7E0000020B80500201B
:101A900028010020E80000202C010020C4000020C4
:101AA00030B587B00B9C7CB10C9DB5B15C2504951D
:101AB000049D5C2D1AD04FF0500383F31188BFF3BF
:101AC0006F8FBFF34F8FFEE74FF0500383F3118802
:101AD000BFF36F8FBFF34F8FFEE74FF0500383F3D9
:101AE0001188BFF36F8FBFF34F8FFEE7049D0C9DEE
:101AF0002C63022485F8594000240394029505AC18
:101B000001940A9C0094FFF75BFE0C98FFF7DEFE41
:101B1000059807B030BD2DE9F04385B007468846EB
:101B200014461E46900000F06BFE08B381465C2010
:101B300000F066FE0546A8B1C0F83090002380F89A
:101B40005930039302900D9B01930C9B00933346F5
:101B5000224641463846FFF733FE2846FFF7B6FED9
:101B6000012007E0484600F0CDFE4FF0FF3001E0D5
:101B70004FF0FF3005B0BDE8F083000010B588B02D
:101B800000240594069407AA06A905A800F0BEFD46
:101B9000059B0293069B019300942346079A1749DD
:101BA0001748FFF77DFF174B1860C0B100F04EFBE0
:101BB000012815D14FF0500383F31188BFF36F8FC5
:101BC000BFF34F8F104B4FF0FF321A600F4B0122C3
:101BD0001A600F4B00221A6000F0B6FF03E00020ED
:101BE000B0F1FF3F01D008B010BD4FF0500383F3B8
:101BF0001188BFF36F8FBFF34F8FFEE7482D0008AA
:101C0000FD190008C0000020C4000020D8000020FA
:101C1000E0000020024A136801331360704700BFE0
:101C2000BC000020014B1868704700BFE000002096
:101C3000F8B53A4B1B68002B69D1394B1D6801354B
:101C40001D60C5B9374B1B681B6843B14FF050038B
:101C500083F31188BFF36F8FBFF34F8FFEE7314AD5
:101C60001168314B186810601960304A13680133ED
:101C70001360FFF78FFD2E4B1B68AB423DD9002749
:101C80002C4B1B68DB6A03EB83039A002A4B9B589F
:101C9000012B00D90127294B1B68002B3CD00127C1
:101CA0003AE001271F4B1B681B6843B31D4B1B68A1
:101CB000DB68DC6863689D4226D3261D3046FFF74B
:101CC00000FAA36A1BB104F11800FFF7FAF9E36AFE
:101CD0001B4A1268934201D9194A136003EB83032C
:101CE0009A00314614481044FFF7C7F9E26A114BD5
:101CF0001B68DB6A9A42D4D2D4E70027D2E70C4BA8
:101D00004FF0FF321A60BBE7094A1360B8E70D4A8B
:101D100013680133136000273846F8BDBC0000206B
:101D2000E00000202C01002028010020CC00002031
:101D3000C4000020B805002058010020D000002079
:101D4000DC000020D400002038B5354B1B6843B9B7
:101D50004FF0500383F31188BFF36F8FBFF34F8FA2
:101D6000FEE700F067FE2E4B1A68013A1A601B6806
:101D7000002B4FD12B4B1B680BB900244BE00024E8
:101D8000294B1B681BB3284BDB68DC6804F1180087
:101D9000FFF797F9251D2846FFF793F9E06A234BD3
:101DA0001B68984201D9214B186000EB800029463E
:101DB0001F4B03EB8000FFF760F9E26A1D4B1B68C5
:101DC000DB6A9A42DCD31C4B01221A60D8E70CB1C3
:101DD000FFF7E0FC194B1C6884B9174B1C68D4B1A1
:101DE0004FF0E0234FF08052C3F8042DBFF34F8F24
:101DF000BFF36F8F01240EE0013C07D0FFF718FFFF
:101E00000028F9D00C4B01221A60F5E70B4B002299
:101E10001A60E2E7002400F02FFE204638BD00BF24
:101E2000BC000020E400002014010020DC000020A1
:101E300058010020B8050020D0000020D400002068
:101E400010B5A8B10446104B1B6843B14FF05003C6
:101E500083F31188BFF36F8FBFF34F8FFEE7FFF758
:101E6000D9FE00212046FFF7DDFDFFF76DFF48B9E1
:101E70004FF0E0234FF08052C3F8042DBFF34F8F93
:101E8000BFF36F8F10BD00BFBC000020204B1B684C
:101E90001BB1204B01221A6070471E4B00221A60B2
:101EA0001D4B1B6803EB83018A001C498A585AB9F1
:101EB0000BB1013BF6E74FF0500383F31188BFF3FA
:101EC0006F8FBFF34F8FFEE7084603EB83018A0055
:101ED000024451684968516003EB830C4FEA8C025D
:101EE0000832024491420BD003EB830291000B4A6B
:101EF0000A445268D1680A4A1160074A1360704761
:101F0000486862469100054A0A445060ECE700BF09
:101F1000BC000020D0000020DC0000205801002080
:101F2000B805002058B110B50C46094A116818319F
:101F3000FFF7AEF801212046FFF774FD10BD4FF00A
:101F4000500383F31188BFF36F8FBFF34F8FFEE70A
:101F5000B805002038B570B10D4614460A4A11681C
:101F60001831FFF78AF80CB14FF0FF3521462846AB
:101F7000FFF758FD38BD4FF0500383F31188BFF3CE
:101F80006F8FBFF34F8FFEE7B805002038B5C368E9
:101F9000DC6824B304F118052846FFF792F8184BC3
:101FA0001B682BBB251D2846FFF78BF8E06A154BF5
:101FB0001B68984201D9134B186000EB800029463A
:101FC000114B03EB8000FFF758F8E26A0F4B1B68D8
:101FD000DB6A9A4211D901200D4B186038BD4FF0D1
:101FE000500383F31188BFF36F8FBFF34F8FFEE76A
:101FF00029460848FFF741F8E7E70020EEE700BF71
:10200000BC000020DC00002058010020B8050020A2
:10201000D000002014010020034B1B680360034B19
:102020001B684360704700BFCC000020E000002028
:1020300038B5E0B10C46054611B300F0FBFC1C4B73
:1020400019686B68C81A2268B2F1FF3F29D0DFF81F
:1020500064C0DCF800C0D5F800E0E64501D08B4252
:1020600024D9824215D80023236001241AE04FF0BE
:10207000500383F31188BFF36F8FBFF34F8FFEE7D9
:102080004FF0500383F31188BFF36F8FBFF34F8F6F
:10209000FEE75B1A134423602846FFF7BDFF0024C8
:1020A00000E0002400F0E8FC204638BD0124F9E7F8
:1020B000E0000020CC000020014B01221A60704794
:1020C000D0000020054B1B6833B1054B1B680BB1DA
:1020D000002070470220704701207047D800002080
:1020E000BC00002000283BD038B504461E4B1B68BE
:1020F000834208D04FF0500383F31188BFF36F8FF2
:10210000BFF34F8FFEE7036D43B94FF0500383F3E6
:102110001188BFF36F8FBFF34F8FFEE7013B03655D
:10212000C16AC26C91421DD00BB1002038BD051DA3
:102130002846FEF7C6FFE06CE062C0F13803A361F9
:102140000A4B1B68984201D9084B186000EB8000CD
:102150002946074B03EB8000FEF78FFF0120E5E7E0
:10216000002070470020E1E7B8050020DC000020D7
:1021700058010020064B1A6813682BB9012303602D
:1021800023B9D368186870470023F8E70020704728
:10219000BC06002008B54160006191420CD8D21AFB
:1021A00083699A4201D3012008BD011D094B1868BB
:1021B000FEF76EFF0020F7E79A4201D2994206D25D
:1021C000011D054B1868FEF763FF0020ECE70120B6
:1021D000EAE700BFB8060020BC06002030B583B097
:1021E00000F028FC114B1B681BB100F045FC03B04C
:1021F00030BD0F4D2846FEF732FF0E4C2046FEF74D
:102200002EFF0D4B1D600D4B1C60002300930C4BEB
:102210000C4A10210A20FFF75AF8044B18600028D6
:10222000E3D00949FFF778FADFE700BFB4060020E2
:10223000D4060020C0060020BC060020B8060020FE
:10224000BC0500200C060020502D000810B588B0F9
:10225000FFF7C4FF124B1B68CBB100240594069412
:1022600007AA06A905A800F05DFA059B0293069B44
:102270000193022300932346079A0A490A48FFF76D
:102280000FFC0A4B186010B1012008B010BD4FF0D0
:10229000500383F31188BFF36F8FBFF34F8FFEE7B7
:1022A000B4060020582D0008B1250008B006002013
:1022B000B8B19C4603461848006858B300B585B0CD
:1022C00000910192029305291CDCFFF7FBFE022816
:1022D00010D000231A4669460F480068FFF741F8FE
:1022E00015E04FF0500383F31188BFF36F8FBFF3F6
:1022F0004F8FFEE70023069A694607480068FFF7FC
:1023000030F804E0002362466946FFF7EEF805B0B6
:102310005DF804FB00207047B406002070B582B061
:102320001B4B1B681A6862B3DB681E68DC68251DDE
:102330002846FEF7C6FE236A2046984794F82830C0
:1023400013F0040FECD0A36933449E4207D26360BC
:10235000246129460E4B1868FEF79AFEE0E700213B
:1023600000910B4632462046FFF7A2FF0028D7D146
:102370004FF0500383F31188BFF36F8FBFF34F8F7C
:10238000FEE7044A106802490860136002B070BD9D
:10239000BC060020B806002038B50546FFF742FC11
:1023A0000446074B1B68834205D800232B60044B6F
:1023B0001C60204638BDFFF7B1FF01232B60F6E714
:1023C000AC06002070B582B006460D461749096874
:1023D000C968CC68201DFEF774FE94F828C01CF074
:1023E000040F08D12CF0010C84F828C0236A204681
:1023F000984702B070BDA16933462A463144204651
:10240000FFF7C8FE0028F1D0002100910B463246AC
:102410002046FFF74DFF0028E8D14FF0500383F32B
:102420001188BFF36F8FBFF34F8FFEE7BC0600200C
:1024300070B582B006460C46FFF7ECFB01A8FFF72B
:10244000ABFF019B33BB0546E4B9B04213D2224631
:10245000711B124B1868FFF773F9FFF775FCD8B9B9
:102460004FF0E0234FF08052C3F8042DBFF34F8F9D
:10247000BFF36F8F10E0FFF767FC29463046FFF788
:10248000A1FF09E0064A126812680AB90124DEE7D2
:102490001C46DCE7FFF758FC02B070BDB406002014
:1024A000B806002010B588B002E0049B002B0FDABC
:1024B000002204A93D4B1868FFF77EF8002872D06F
:1024C000049B002BF1DA07990698059B9847ECE7E7
:1024D000069C636913B1201DFEF7F3FD03A8FFF707
:1024E0005BFF0246049B092BE2D8DFE803F00505F9
:1024F000052F364E05052F3694F8283043F001039A
:1025000084F82830059BA16919442046FFF742FE54
:102510000028CDD0236A2046984794F8283013F03D
:10252000040FC5D0A269002100910B460598024412
:102530002046FFF7BDFE0028BAD14FF0500383F3C9
:102540001188BFF36F8FBFF34F8FFEE794F82830E9
:1025500023F0010384F82830AAE794F8283043F0E8
:10256000010384F828300599A16129B1034601448B
:102570002046FFF70FFE9BE74FF0500383F31188CF
:10258000BFF36F8FBFF34F8FFEE794F8283013F03F
:10259000020F04D023F0010384F8283088E7204696
:1025A00000F0B0F984E708B010BD00BFB406002009
:1025B00000B583B001A8FFF7DDFD0199FFF738FFF3
:1025C000FFF770FFF6E708B54FF0E0231B69FFF750
:1025D00079FD012800D108BD00F08CFAFBE700006E
:1025E000EFF305832BB9064B186828B901221A604E
:1025F00070476FF0050070474FF0FF30704700BF25
:10260000A00D0020EFF3058373B90A4B1B68012B63
:102610000DD110B50024084BDC77064B02221A605E
:10262000FFF7ACFA204610BD6FF0050070474FF081
:10263000FF307047A00D002000ED00E0F0B587B03E
:1026400000240594EFF3058404BBF8B1002A34D0CC
:10265000156893692BB11E46013B372B02D9002028
:1026600015E01826536813F0010F3FD1546984B167
:102670004FEA940C93682BB1D7685B2F02D9176986
:1026800007B184B943B14FF0FF330BB3059807B0DE
:10269000F0BD4FF0800CEDE7D368A3B91369ABB17F
:1026A0004FF0FF33F1E70293019700960B46624625
:1026B0002946FFF7F5F90590E8E7154600231826A7
:1026C0004FF0800CE1E74FF0FF33DEE70023DCE75B
:1026D00005AB019300960B461FFA8CF22946FFF7D3
:1026E0001AFA0128D2D000230593CFE70020CEE7C5
:1026F00008B5EFF3058333B908B9002008BDFFF72B
:102700009FFB0020FAE76FF00500F7E7034B03603B
:10271000034B0B6080231360704700BF440D002003
:10272000440B0020034B0360034B0B604FF480739A
:1027300013607047E80A0020E8060020124A12F0F1
:10274000070F1ED0D11D21F00701C1F540631344CE
:102750000A460E480260002141601344083B23F002
:1027600007030B48036059601960991A51601360A0
:10277000084B1960084B1960084B4FF000421A6073
:1027800070474FF44063E4E7C40D0020BC0D002007
:10279000B80D0020B00D0020B40D0020A40D0020C5
:1027A000154B1A461B688342FBD3516802EB010CA0
:1027B000844509D0416800EB010C634509D00360F2
:1027C000904218D010607047406801445160104634
:1027D000F0E710B4094C2468A3420AD05B6819449E
:1027E000416013681B680360904200D0106010BC09
:1027F00070470460F8E77047BC0D0020B80D00205A
:1028000038B50446FFF706FA384B1B68B3B1384BAE
:102810001B681C4250D1002C50D004F1080214F067
:10282000070F02D022F007020832002A55D0314BA0
:102830001B68934253D330490C6804E0FFF77EFFD6
:10284000E5E721461C466368934202D22368002BC9
:10285000F7D1264B1B68A34243D00D680835236887
:102860000B6063689B1A102B10D9A01810F0070F8B
:1028700008D04FF0500383F31188BFF36F8FBFF37D
:102880004F8FFEE743606260FFF78AFF6268194975
:102890000B689B1A0B60194909688B4201D21749D2
:1028A0000B60134B1B681343636000232360144ABF
:1028B00013680133136002E0002500E00025FFF7F4
:1028C00043FA15F0070F0ED04FF0500383F3118831
:1028D000BFF36F8FBFF34F8FFEE70025EFE70025B3
:1028E000EDE70025EBE7284638BD00BFB80D002016
:1028F000A40D0020B40D0020BC0D0020B00D002060
:10290000AC0D0020002834D038B50446A0F10805ED
:1029100050F8043C174A1268134208D14FF0500394
:1029200083F31188BFF36F8FBFF34F8FFEE750F82B
:10293000081C41B14FF0500383F31188BFF36F8F30
:10294000BFF34F8FFEE723EA020340F8043CFFF792
:1029500061F954F8041C084A13680B4413602846B4
:10296000FFF71EFF054A136801331360FFF7ECF908
:1029700038BD7047A40D0020B40D0020A80D002024
:1029800082B0002301930D4B1B68B3F1FF3F08D0C9
:102990004FF0500383F31188BFF36F8FBFF34F8F56
:1029A000FEE74FF0500383F31188BFF36F8FBFF33F
:1029B0004F8F019B002BFCD002B070470C00002011
:1029C00006480068006880F3088862B661B6BFF305
:1029D0004F8FBFF36F8F00DF00BF000008ED00E0F6
:1029E0004FF0807340F8043C21F0010140F8081CCE
:1029F000034B40F80C3C40F8202C4038704700BF97
:102A00008129000800000000000000000000000014
:102A1000074B19680868B0E8F00F80F30988BFF326
:102A20006F8F4FF0000080F311884EF00D0E70474D
:102A3000B80500204FF0500383F31188BFF36F8F68
:102A4000BFF34F8F0B4A136801331360012B00D083
:102A500070474FF0E023D3F8043D13F0FF0FF7D099
:102A60004FF0500383F31188BFF36F8FBFF34F8F85
:102A7000FEE700BF0C000020094B1B6843B94FF074
:102A8000500383F31188BFF36F8FBFF34F8FFEE7BF
:102A9000013B034A13600BB983F31188704700BFF1
:102AA0000C000020000000000000000000000000FA
:102AB000EFF30980BFF36F8F0D4B1A6820E9F00F19
:102AC00010602DE908404FF0500080F31188FFF7A7
:102AD000DDF94FF0000080F31188BDE80840196867
:102AE0000868B0E8F00F80F30988BFF36F8F704774
:102AF000B805002008B54FF0500383F31188BFF3E9
:102B00006F8FBFF34F8FFFF793F828B14FF0E0239B
:102B10004FF08052C3F8042D002383F3118808BDC1
:102B20004FF0E022002313619361054B1B680549B8
:102B3000A1FB03139B09013B5361072313617047FA
:102B400008000020D34D621010B582B02A4B1A78CD
:102B5000D2B20192FF221A701B78DBB28DF80330DB
:102B60009DF8033003F05003244A1370244B0722CE
:102B70001A6009E0224A1368013B13609DF8033094
:102B80005B00DBB28DF803309DF8033013F0800F4B
:102B9000F0D11B4B1B68032B08D04FF0500383F37D
:102BA0001188BFF36F8FBFF34F8FFEE71B02144AEC
:102BB000136003F4E0631360019BDBB20E4A1370F1
:102BC0004FF0E023D3F8202D42F47002C3F8202DFB
:102BD000D3F8202D42F07042C3F8202DFFF7A0FF5C
:102BE0000024084B1C60FFF7EBFEFFF74FF9FFF7DF
:102BF000C7FE204602B010BD00E400E0C819002066
:102C0000C41900200C000020EFF305830F2B0ED910
:102C1000114A9A5C114B1B789A4208D24FF050032C
:102C200083F31188BFF36F8FBFF34F8FFEE74FF031
:102C3000E023D3F80C3D03F4E063094A12689342A1
:102C400008D94FF0500383F31188BFF36F8FBFF3A0
:102C50004F8FFEE7704700BFF0E300E0C819002087
:102C6000C4190020FEF7FAF90B480C490C4A00235E
:102C700002E0D458C4500433C4188C42F9D3094A32
:102C8000094C002301E013600432A242FBD300F0A0
:102C900017F8FDF7C3FA704700000020100000206D
:102CA000B82D000810000020CC190020FEE70346D4
:102CB0000244934200D1704703F8011BF9E700007A
:102CC00070B500260C4D0D4B5B1B9C10A64209D124
:102CD000002600F027F80A4D0A4B5B1B9C10A64209
:102CE00005D170BD55F8043B98470136EEE755F81D
:102CF000043B98470136F2E7B02D0008B02D0008DC
:102D0000B02D0008B42D00080A44914200F1FF33B1
:102D100000D1704710B511F8014B914203F8014FF3
:102D2000F9D110BDF8B500BFF8BC08BC9E4670478D
:0C2D3000F8B500BFF8BC08BC9E46704718
:102D3C0064656661756C745461736B0049444C45F1
:102D4C0000000000546D725100000000546D7220A0
:102D5C00537663003C2D00080000000000000000CA
:102D6C00000000000000000000020000180000003D
:102D7C000000000000000000010200000203040536
:102D8C00060708090A0B0C0D0E0F101000000000AE
:102D9C000102030400000000000000000102030413
:042DAC000607080905
:042DB000790100089D
:042DB40051010008C1
:102DB800010000001000000000127A00AAAAAAAAC6
:0400000508002C655E
:00000001FF
